:100000000C942F020C9476020C9476020C947602D7
:100010000C9476020C9476020C9476020C94760280
:100020000C9476020C9476020C94262A0C94FA2AEC
:100030000C9495220C9476020C9476020C94760221
:100040000C9476020C9476020C9476020C94760250
:100050000C9476020C9424230C9476020C94760271
:100060000C9476020C9476020C9476020C94760230
:100070000C9476020C9476020C9476020C94760220
:100080000C9476020C9476020C9476020C94760210
:100090000C9476020C9476020C9476020C94760200
:1000A0000C9476020C9476020C94760235001E00B5
:1000B0001F0020002100220023002400250026002C
:1000C00027002D002E002A004A002B0014001A00E1
:1000D0000800150017001C0018000C001200130087
:1000E0002F00300031004B0029610400160007008A
:1000F00009000A000B000D000E000F003300340051
:10010000000028004E00E1001D001B000600190041
:10011000050011001000360037003800E50000002F
:1001200052004D00E000E300E200000000002C005F
:1001300000000000E60000000151500000005100E6
:100140004F0035003A003B003C003D003E003F00C0
:100150004000BC00AE00BB00AA00A9004C004A0051
:100160000100C25CC35CC55CC65CC75CC85CC95CA2
:10017000CA5C0100460047004800005C4B00396142
:10018000CB5CCC5C0100010001000100010001001A
:100190000100010001000000DE5C4E00E1000100F2
:1001A0000100010001000100010001000100010047
:1001B000010001000000A900A800010001000100E9
:1001C000000000000100000000000100000001002C
:1001D000AC000000AA00AB00000101010101010117
:1001E00001010202020202020202020303030303EC
:1001F00003030304040404040404050505050506BB
:100200000606060607070707070808080809090978
:10021000090A0A0A0B0B0B0C0C0C0D0D0D0E0E0E21
:100220000F0F0F10101111111212131314141515B2
:1002300016161717181819191A1A1B1B1C1D1D1E24
:100240001E1F202021222223242425262627282978
:10025000292A2B2C2D2D2E2F3031323233343536A6
:100260003738393A3B3C3D3E3F40414243444546A6
:100270004748494A4C4D4E4F505153545556585982
:100280005A5B5D5E5F616264656668696B6C6D6F29
:100290007072737577787A7B7D7E8082838587889C
:1002A0008A8C8E8F91939596989A9C9EA0A2A3A5D6
:1002B000A7A9ABADAFB1B3B5B7BABCBEC0C2C4C6D7
:1002C000C9CBCDCFD1D4D6D8DBDDDFE2E4E7E9EB93
:1002D000EEF0F3F5F8FAFDFF0403300000001A0316
:1002E0006B0062006400360037006D006B0069002F
:1002F0006900720067006200000010034B004200BA
:100300004400660061006E007300000004030904ED
:1003100009023B00020100A0FA09040000010301E8
:100320000100092111010001224000070581030895
:10033000000A090401000103000000092111010065
:100340000122C0000705820320000A1201100100EB
:10035000000008EDFE24120200010203010501095C
:1003600002A10185020901A100050919012905154C
:10037000002501950575018102950175038101052F
:1003800001093009311581257F950275088106091B
:10039000381581257F950175088106050C0A3802FC
:1003A0001581257F950175088106C0C0050109806A
:1003B000A10185031A81002A83001601002603008B
:1003C000950175108100C0050C0901A10185041A71
:1003D00001002A9C02160100269C029501751081DD
:1003E00000C005010906A1018505050719E029E7F7
:1003F000150025019508750181020507190029EFEF
:100400001500250195F075018102050819012905DE
:10041000950575019102950175039101C0050109CA
:1004200006A101050719E029E715002501950875C2
:100430000181029501750881010507190029FF1541
:100440000026FF0095067508810005081901290599
:10045000950575019102950175039101C000112464
:100460001FBECFEFDAE0DEBFCDBF04B603FE27C06C
:100470008091280690912906A0912A06B0912B061A
:100480008730904BA740B04BD1F4109228061092C1
:10049000290610922A0610922B0614BE84B7877F75
:1004A00084BF0FB6F894A89580916000886180930E
:1004B0006000109260000FBEE0E0F8E3099513E0E1
:1004C000A0E0B1E0EEE8FBE502C005900D92A03699
:1004D000B107D9F726E0A0E6B3E001C01D92A8322B
:1004E000B207E1F70E9457270C94762D0C94000078
:1004F0000C9494020C9495020C94960281E00E9454
:1005000052100C94452280E00E9452100C948C22D0
:100510000E94B61581FF07C02FEF4FEF6FEF8EE1FE
:1005200090E00C94550A08950895089581E0089587
:1005300081E008951F93CF93DF9300D000D00F92F6
:10054000CDB7DEB749835A836B832091CE0389816F
:100550009A8121111BC06623A9F00E94CA1F182F7F
:10056000682F89819A810E94761F69817A81812F03
:100570000F900F900F900F900F90DF91CF911F91E0
:100580000C947E030E94A21F182FEFCF0E94CA1F57
:1005900069817A81EDCFFC01408151816281738153
:1005A00084810C949A020E949D068FEB9DE5019731
:1005B000F1F700C000000E949D0680E00E942B061B
:1005C00080FF04C00E940E210C94482308950E94CD
:1005D000D3020E941421811102C00E94B1210E9405
:1005E000F60F0C9478020E94870E0C947A020895FC
:1005F0000C94F70281E008950C94FA02CF93C82F6F
:100600000E94F8028C2FCF910C94FC0208950E9456
:10061000B61A0E9406032FEF84E39CE0215080402D
:100620009040E1F700C000000C9448230F931F9303
:10063000CF93DF93EC010E94CB028C01BE010E949C
:10064000EC0D8823D9F1BE01C8010E947C028823E9
:10065000A9F1BE01C8010E949513882379F1BE015A
:10066000C8010E94D613882349F1BE01C8010E9427
:10067000D012882319F18A81882341F001158CE575
:100680001807D1F00E3D8CE51807F1F006311C4536
:1006900051F50E945F209A819923D9F08A7A91E0DE
:1006A00009F490E090936003811111C089E20E94E7
:1006B0003A200E94AB2002C00E94070380E0DF9135
:1006C000CF911F910F9108950E94B121F7CF85E33B
:1006D000EECF80916003811104C089E20E94412025
:1006E000E8CF85E3FBCFCE01DF91CF911F910F9132
:1006F0000C94980290E080E008950895972F70E0A0
:100700002FE0929F600D711D1124FB019BE4899FD6
:10071000E00DF11D1124EE0FFF1FE455FF4F8591F1
:1007200094910895FC01EE0FFF1FE852FE4F859152
:1007300094910895CF93DF930E947E030E94510508
:10074000EC01811520E5920708F042C0811530E4E4
:10075000930708F014C1883E910528F5803E910565
:1007600008F0A0C0883A910588F4853A910508F010
:100770008FC08130910509F495C0009709F492C0AB
:10078000049708F08FC0D0E0C0E08CC08F3B91058B
:1007900008F48CC0805C9109C03CD105A0F30E9494
:1007A0009203EC017FC08115904250F4C11581E0A5
:1007B000D80708F077C0C03FD10528F3D06572C0D4
:1007C000C11590E3D90708F0D0C0CE019F70E7CFE4
:1007D000811525E5920758F5811534E5930708F052
:1007E000FDC0811542E5940750F4C11581E5D80795
:1007F00008F4C8C0DC2FCC27C16FD06A53C0982F33
:10080000969596959E0123703327C115D34508F020
:10081000D6C0C1E0D0E002C0CC0FDD1F2A95E2F7C0
:1008200020E2929FC0011124C82BD92BC6C0C1154C
:1008300089E5D807A8F4C11598E5D90708F0D3C011
:10084000C11526E5D20708F09ECF8C2F0E94E8053F
:10085000C82FD0E0DC2FCC27CC27DF71D06222C09C
:10086000C1153AE5D30708F4C3C0CE0190568115EF
:10087000904208F088CF8D2F8F710E94E80590E09C
:10088000982F882788279F719C012C2BE901E6CFA0
:10089000853A910509F4BAC0863A910509F0B9C0C4
:1008A000C2E8D0E4CE01DF91CF910895883A910556
:1008B00009F4B2C0893A910509F4B1C08A3A9105A8
:1008C00009F4B0C08B3A910509F4AFC08C3A910598
:1008D00009F4AEC08B3B910509F4ADC08C3B91058A
:1008E00009F4ACC08D3A910509F4ABC0803B910589
:1008F00009F4AAC08E3A910509F4A9C08F3A91056E
:1009000009F4A8C0813B910509F4A7C0823B910579
:1009100009F4A6C0833B910509F4A5C0843B910569
:1009200009F4A4C0853B910509F4A3C0863B910559
:1009300009F4A2C0873B910509F4A1C0883B910549
:1009400009F4A0C0893B910509F49FC08D3B910536
:1009500009F49EC08E3B910509F49DC08A3B910528
:1009600009F49CC0C0E0D4E49DCFCE019927D3FF09
:1009700003C0EC01D86C96CFEC01D06C93CFDF7044
:10098000D06A90CFCE01E4E096958795EA95E1F79D
:1009900083702C2F26952695237090E2299F900135
:1009A0001124382B8C2F8370C1E0D0E002C0CC0F13
:1009B000DD1F8A95E2F7C22BD32BDC6873CFC1E031
:1009C000D0E002C0CC0FDD1F2A95E2F730E2939F02
:1009D000C0011124C82BD92BDA6864CFD82FCC27BB
:1009E000C46FD06A5FCFDC2FCC27C06FD06A5ACFDC
:1009F0008C2F8F700E94E80534E0D695C7953A9504
:100A0000E1F7CF709C2FEC01D0694CCFC1E8D0E466
:100A100049CFC3E8D0E446CFC2EED4E443CFC9EE19
:100A2000D4E440CFCAEED4E43DCFC5EBD4E43ACF12
:100A3000C6EBD4E437CFC3EBD4E434CFC4EBD4E477
:100A400031CFC7EBD4E42ECFCCECD4E42BCFCDEC1C
:100A5000D4E428CFC3E8D5E425CFCAE8D5E422CF33
:100A6000C2E9D5E41FCFC4E9D5E41CCFC1E2D6E486
:100A700019CFC3E2D6E416CFC4E2D6E413CFC5E261
:100A8000D6E410CFC6E2D6E40DCFC7E2D6E40ACF53
:100A9000CFE6D4E407CFC0E7D4E404CFCAE2D6E47B
:100AA00001CF82389105B1F1B0F48133910509F499
:100AB00075C048F48932910509F469C08A329105FC
:100AC00009F473C008958533910509F459C0893339
:100AD000910501F10895833E9105A9F138F4803E16
:100AE0009105F9F0823E910549F10895863E910500
:100AF000A9F1873E9105C9F1843E910519F5209130
:100B00001A0621FF1FC08091190684FD14C087EECC
:100B100090E00895209119062370A1F080EE90E0F6
:100B200008952091190620FD47C030911A0630FF24
:100B300009C024FF44C090E080E004C02091190661
:100B400022FDF7CF08952091190622FD3BC0309178
:100B50001A0630FDE3CF24FFF5CFEDCF2091190623
:100B600023FFF0CF24FDE7CFD2CF2091190623FD3C
:100B70002CC030911A0631FFEECF84EE90E008953C
:100B80002091190625FFDECF89E290E0089520919B
:100B9000190625FFD7CF85E390E008952091190627
:100BA00026FFD0CF8AE290E008952091190626FF13
:100BB000C9CF81E390E0089589E390E0089583EE42
:100BC00090E0089582EE90E0089586EE90E008951A
:100BD0009091190692FF06C0282F28712830F9F449
:100BE000877F846093FF06C0282F28712831F1F495
:100BF000877E846120911A0620FF06C0382F387145
:100C00003830D9F4877F816021FF06C0282F2871F2
:100C10002831D1F4877E816194FD877E0895282F45
:100C200024712430F9F68B7F8860DCCF282F247163
:100C3000243101F78B7E8861DDCF382F317131305F
:100C400019F78E7F8860E0CF282F2171213121F79D
:100C50008E7E8861E1CFE82FF0E0EE0FFF1FE156B6
:100C6000FB4F8081918108950895CF93DF93ABE48A
:100C7000B3E040E553E0C1E0D0E08D91E82FE2958C
:100C8000EF70F0E061A18F709E0101C0220F8A9584
:100C9000EAF7922F9095962391A382A1822B82A3AB
:100CA0004A175B0751F7ACE3B3E061E070E08D9168
:100CB000E82FE295EF70F0E041A18F709B0101C039
:100CC000220F8A95EAF7922F9095942391A382A1FF
:100CD000822B82A383E0AB34B80749F710929604C5
:100CE000109295041092A00410929F041092980400
:100CF000109297041092A2041092A10410929A04E8
:100D0000109299041092A4041092A30410929C04CF
:100D100010929B041092A6041092A50410929E04B7
:100D200010929D041092A8041092A70485E00E94DE
:100D30003307DF91CF910C94E7025F926F927F921D
:100D40008F929F92AF92BF92CF92DF92EF92FF92DB
:100D50000F931F93CF93DF9325E934E00BE413E067
:100D6000512CEE24E394F12CE901899099909E0195
:100D7000DE011E921E92F80181918F01E82FE2950B
:100D8000EF70F0E091A18F70B70101C0660F8A95F6
:100D9000EAF7892F862B81A382A1662E6094862193
:100DA00082A380EA8A95F1F78CE3C82E83E0D82EDF
:100DB00050E040E0E60179906E01872D82958F70BA
:100DC00090E0EC0188A1AD90BC90119790E0D72DF8
:100DD000DF7002C095958795DA95E2F780FD40C0F7
:100DE000C701042E02C0880F991F0A94E2F78A29CE
:100DF0009B2911969C938E934F5F5F4F4F30510507
:100E0000C9F681A1D62DD823D1A382A1682B62A3D4
:100E100081E04D915C914815590509F480E0582A0C
:100E2000E4E02F393E0709F09FCF252D45E06FE91B
:100E300074E085E994E00E9434070E94F302852D56
:100E4000DF91CF911F910F91FF90EF90DF90CF90A6
:100E5000BF90AF909F908F907F906F905F9008951C
:100E600090E080E0C4CF0895FF920F931F93CF933B
:100E7000DF93F82E092F162FD72FC42F222349F0E6
:100E800081E0809363030E94C52290936203809364
:100E90006103809163038823A1F0809161039091A5
:100EA00062030E94DD22049760F0EF2DF02FA12F46
:100EB000BD2F90E080E0D0E08C179D0744F01092A9
:100EC0006303DF91CF911F910F91FF9008952191BE
:100ED00031912D933D930196EFCFAF92BF92CF9278
:100EE000DF92FF920F931F93CF93DF93362F472FFD
:100EF000E82FF0E0E852FE4F71110DC06491762F9B
:100F0000862FDF91CF911F910F91FF90DF90CF90AF
:100F1000BF90AF900895C72FD0E02491F22E022FFA
:100F200010E056E0659FC0011124EFEFF0E0BF0133
:100F30000E94AC2C832F90E0880F991F35E5369FD7
:100F4000D001379FB00D11248A1B9B0B982F990F4E
:100F5000980F6F01CC1ADD0AC09ED001C19EB00D62
:100F6000D09EB00D11248B2F949FA0011124452FEA
:100F700055276F01C41AD50AC09EA001C19E500D0D
:100F8000D09E500D11245F01A91AB108AC9E6001DA
:100F9000AD9ED00CBC9ED00C1124CD2CDD24EC19C0
:100FA000FD09E09FE001E19FD00DF09FD00D1124DD
:100FB000ED2F62307105A1F048F46115710569F0FB
:100FC0006130710589F0EB2F852F07C06430710502
:100FD00071F088F066307105B1F76E2F722F91CFE6
:100FE000E22F2B2F8D2FF9CFE22F252FF6CFEB2FCE
:100FF000822F2D2FF2CF2B2F8F2DE52FEECF30E02C
:1010000020E0869F212D969F200D311D1124C901BE
:101010000895AC018230910508F408959FEF413E98
:101020008EE1580740F49A0195E0369527959A95F8
:10103000E1F798E0920F61E0E62FE90FFF27FF1F2D
:101040009F0135952795822F229FF001239FF00D58
:10105000F00D11244E175F0738F49FEF920F96178B
:1010600058F78FEF860F08952F3FE9F361E0620F85
:10107000F6CFE82F86FDE0952E2F2F7086FD2F5F8F
:10108000E695E695E695E670F0E0E05BFC4F918131
:10109000929F902D212D112492959F702295207F53
:1010A000922B2081920F87FD919580E8890F0895FA
:1010B000E42FF0E0EE0FFF1FE55BFE4F408134EEC2
:1010C000439F412D1124E82FF0E050E0445E5F4F34
:1010D000DA01A21BB1099D01B7FF03C0319521952B
:1010E000310993E0220F331F9A95E1F7AF01421BBC
:1010F000530B9A0157FD20E0582F259F212D1124D5
:10110000822F0895E42FF0E0EE0FFF1FE55BFE4F06
:101110006081621B0895E42FF0E0EE0FFF1FE45B97
:10112000FE4F6081621B0895322F50E0FA01EE0FEE
:10113000FF1FE45BFE4F9081905297FD9195440F05
:10114000551FFA01E55BFE4F2081231B330B290F4E
:10115000311D97FD3A95620F0895EF920F93972FE7
:1011600023E0029FB0011124759567956E0D792FCC
:101170000F91EF9008950F93CF93DF93D72FC82F40
:1011800047FD419588E390E0841B910947FD9395C5
:10119000889FB001899F700D700D1124229FC0019E
:1011A000239F900D900D1124860F971F0E94090810
:1011B000982F990F890F682F600F7D2F8C2FDF914B
:1011C000CF910F9108950F931F93522F10E0F801C4
:1011D000EE0FFF1FE45BFE4FA081A052BB0B9D01F1
:1011E0005203F001539FF00D1124000F111FD8017D
:1011F000A55BBE4F0C910057110B40039001419F1E
:10120000300D11242E0F3F1F37FF02C021583F4FD2
:10121000220F232F221F330B620F1F910F9108956E
:101220000F931F93522F10E0F801EE0FFF1FE45BA6
:10123000FE4FA081A052BB0B9D015203F001539FB2
:10124000F00D1124000F111FD801A55BBE4F0C91AA
:101250000057110B40039001419F300D11242E0FB8
:101260003F1F37FF02C0215C3F4F96E03595279521
:101270009A95E1F7620F1F910F9108950F931F93B5
:1012800010E0F801EE0FFF1FE55BFE4F90819057D5
:1012900097FD9195000F111FF801E45BFE4F00814F
:1012A0000052110B2003F001219FF00D112408E3DF
:1012B00010E0091B110997FD139540039001419F10
:1012C000300D1124E20FF31F9F01220F331F2E0F49
:1012D0003F1F37FF02C021583F4F220F232F221FED
:1012E000330B620F1F910F91089522E8241B08F41D
:1012F00020E0620F0895FC019B01009729F480E033
:1013000077FF2BC080E80895AC0197FF04C0442705
:101310005527481B590BB901640F751F37FD10C0C5
:10132000241B350BC901A5E0880F991FAA95E1F789
:101330000E94C02C80E2861BF7FF0FC081950895A4
:10134000CB0165E0880F991F6A95E1F7BA01621B2E
:10135000730B0E94C02C80E6EECF08950F931F936D
:10136000CF93DF93D62FC72F182FC901212F201B12
:10137000022FBA010E947B09982F990F990F891BA0
:10138000800F282F219F212D1124822F6D2F7C2F3C
:10139000DF91CF911F910F910895EF920F931F93BB
:1013A000CF93DF93D62FC72F182FC9010E19010F26
:1013B000BA010E947B09081B202F219F212D112497
:1013C000822F6D2F7C2FDF91CF911F910F91EF9086
:1013D00008950F93CF93DF93D72FC82FC901BA0178
:1013E0000E947B09682F600F7D2F8C2FDF91CF919A
:1013F0000F910895EF920F93CF93DF93D72FC82FBC
:10140000C9010E19BA010E947B09602F681B7D2F4C
:101410008C2FDF91CF910F91EF90089545E050E030
:101420006CE170E089EA94E00C94242D45E050E0F2
:101430006CE170E089EA94E00C94422DE9EAF4E072
:1014400081E2808380912D0290912E02A0912F0243
:1014500081839283A3838FE784830C94160A80E0B0
:1014600008950F931F93CF93DF93C82FD62F8A0130
:101470000E942F0A9FE0C99FB001112460507F4F46
:101480006D0F711DFB0190819F3F29F0F801E80F5E
:10149000F11D90838F5FDF91CF911F910F91089580
:1014A000E0915E03F0915F030994E0915A03F0919B
:1014B0005B0309945F926F927F928F929F92AF929B
:1014C000BF92CF92DF92EF92FF920F931F93CF9331
:1014D000DF935C014B01FC01C081CC0FCC0F14E009
:1014E0001C0FF12E143410F033E4F32E6091AD0490
:1014F00066958091D7049091D8040E94FF07582EDA
:10150000D0E0CF15A0F081E0133408F080E0DF9147
:10151000CF911F910F91FF90EF90DF90CF90BF90F0
:10152000AF909F908F907F906F905F900895FE0195
:10153000EF52FE4F8081F50191818923C9F1CE01DF
:10154000880F991F80509F4FFC01E55BFF4F208162
:10155000422F4057550B6A01845B9F4FFC018081ED
:10156000282F2052330B3901449F9001459F300DA5
:10157000300D1124669CC001679C900D900D1124C4
:10158000820F931F0E940908082F6091AA0470918E
:10159000AB048091AC04E52C9301A601F4010995FC
:1015A0000E946D07462F282F672FCE010E94550AF3
:1015B0002196A7CF6DEC79E00C945A0A6DEA78E099
:1015C0000C945A0A6AEF79E00C945A0AAF92BF92CF
:1015D000CF92DF92EF92FF920F931F93CF93DF93FF
:1015E0006C017B01FC01C081CC0FCC0F14E01C0FFF
:1015F000B12E143410F033E4B32E6091AD0466952F
:101600008091D7049091D8040E94FF07A82ED0E0C3
:10161000CB1578F081E0133408F080E0DF91CF91B2
:101620001F910F91FF90EF90DF90CF90BF90AF9000
:101630000895FE01EF52FE4F8081F60191818923CA
:1016400011F1CE01880F991F80509F4FFC01E45B80
:10165000FF4F20812052330B855B9F4FFC0140815F
:101660004057550B6091AA047091AB048091AC0473
:101670000A2DF70109950E946D07462F282F672F25
:10168000CE010E94550A2196C3CF6EEA79E00C94F0
:10169000E60A6BEB78E00C94E60A69EE79E00C94CC
:1016A000E60ABF92CF92DF92EF92FF920F931F93C1
:1016B000CF93DF936C017B01FC01C081CC0FCC0F79
:1016C00014E01C0F012F143408F003E46091AD0402
:1016D000669566958091D7049091D8040E94FF0783
:1016E000B82ED0E0C01770F081E0133408F080E02D
:1016F000DF91CF911F910F91FF90EF90DF90CF90EE
:10170000BF900895FE01EF52FE4F8081F601918156
:10171000892391F06091AA047091AB048091AC048C
:101720002B2D4C2FF70109950E946D07462F282F6E
:10173000672FCE010E94550A2196D4CF68E578E044
:101740000C94510B62E878E00C94510B6BE878E054
:101750000C94510B64E978E00C94510B7F928F92BA
:101760009F92AF92BF92CF92DF92EF92FF920F9330
:101770001F93CF93DF935C016B01FC01C081CC0F01
:10178000CC0F14E01C0F912E143410F033E4932E80
:101790006091AD04669566958091D7049091D804C8
:1017A0000E94FF07F82E80E48F0D0E94390890E810
:1017B000892E880E8F2D0E94390820E8722E780E0F
:1017C000D0E0C91590F081E0133408F080E0DF919B
:1017D000CF911F910F91FF90EF90DF90CF90BF902E
:1017E000AF909F908F907F900895FE01EF52FE4F33
:1017F0008081F50191818923A1F06091AA04709103
:10180000AB048091AC04EF2C0C2F272D482DF60152
:1018100009950E946D07462F282F672FCE010E9441
:10182000550A2196CECF63EE78E00C94AE0B60E1C2
:1018300079E00C94AE0B6EE379E00C94AE0BAF92B2
:10184000BF92CF92DF92EF92FF920F931F93CF93AD
:10185000DF937C016B01FC01C081CC0FCC0F24E035
:10186000B22EBC0EAB2CF3E4FB1510F493E4A92EBE
:101870002091AD0430E050E040E06FEF7FEF80E07A
:1018800090E00E94D42C8901D0E02C2FCA1580F062
:1018900081E0F2E4FB1508F480E0DF91CF911F9125
:1018A0000F91FF90EF90DF90CF90BF90AF90089591
:1018B000FE01EF52FE4F8081F70191818923F1F003
:1018C0004091AE044150042E000C550B47FF18C048
:1018D000C8016091AD040E94FF07AC016091AA04A9
:1018E0007091AB048091AC04F60109950E946D07DC
:1018F000462F282F672FCE010E94550A2196C5CF6B
:10190000FA01E255FB4F818982130AC0FA01EE0FFA
:10191000FF1FE255FB4F818D928D80179107C8F212
:1019200041505109D3CF65E779E00C941F0CBF9269
:10193000CF92DF92EF92FF920F931F93CF93DF939B
:101940007C01FC01C081CC0FCC0F14E01C0F012FD7
:10195000143408F003E46091AA047091AB04809100
:10196000AC040E946D07D62EC72EB82ED0E0C0174B
:1019700070F081E0133408F080E0DF91CF911F9187
:101980000F91FF90EF90DF90CF90BF900895FE01F0
:10199000EF52FE4F8081F7019181892331F02B2D89
:1019A0004D2D6C2DCE010E94550A2196E0CF8F92CD
:1019B0009F92AF92BF92CF92DF92EF92FF920F93DE
:1019C0001F93CF93DF937C01FC01C081CC0FCC0F20
:1019D00014E01C0F012F143408F003E4C090AB0492
:1019E000D090AC04D091AA046D2F7C2D8D2D0E9437
:1019F0006D07B62EA72E982E6091AD046D0F7C2D2D
:101A00008D2D0E946D07D62EC72E882ED0E0C017D0
:101A100088F081E0133408F080E0DF91CF911F91CE
:101A20000F91FF90EF90DF90CF90BF90AF909F907D
:101A30008F900895FE01EF52FE4F9081F701818152
:101A4000892359F0282D4D2D6C2D90FD03C0292D93
:101A50004B2D6A2DCE010E94550A2196D8CFBF92F8
:101A6000CF92DF92EF92FF920F931F93CF93DF936A
:101A70008C01FC01C081CC0FCC0F54E0F52EFC0E84
:101A8000DF2CF3E4FF1510F443E4D42EC090AB0434
:101A9000B090AC042091AD0430E4E32E3E2D329F93
:101AA000312D1124E32ED0E0CD1578F081E032E421
:101AB0003F1508F480E0DF91CF911F910F91FF90C7
:101AC000EF90DF90CF90BF900895FE01EF52FE4F50
:101AD0008081F80191818923D9F0FE01EE0FFF1F6B
:101AE000E55BFE4F6081E69EB001112495E075959F
:101AF00067959A95E1F78091AA04680F7C2D8B2D4C
:101B00000E946D07462F282F672FCE010E94550A8D
:101B10002196CACFBF92CF92DF92EF92FF920F939E
:101B20001F93CF93DF938C01FC01C081CC0FCC0FAE
:101B300094E0F92EFC0EEF2CF3E4FF1510F483E48F
:101B4000E82ED090AA04D091AB04C090AC04609170
:101B5000AD046695669566958091D7049091D804FA
:101B60000E94FF070E943908805887FD8195880FE1
:101B7000282F3C2D239F212D1124822F6D2D7D2F69
:101B80000E946D07D62EC72EB82ED0E0CE1578F065
:101B900081E022E42F1508F480E0DF91CF911F91BE
:101BA0000F91FF90EF90DF90CF90BF900895FE01CE
:101BB000EF52FE4F8081F8019181892331F02B2D66
:101BC0004D2D6C2DCE010E94550A2196DFCFE0915C
:101BD0005C03F0915D030994CF92DF92EF92FF9244
:101BE0000F931F93CF93DF93CDB7DEB728970FB630
:101BF000F894DEBF0FBECDBFFB018281F12C88239C
:101C000081F0AE014F5F5F4F608181810E94310A98
:101C1000F82E1092DB041092DC041092DD04109276
:101C2000DE04E09064030F2D10E0C8018E0D911DBD
:101C3000099764F188E090E06C01C01AD10AB801FC
:101C40006B597C4FA60185E693E00E941B2DB801DD
:101C500063597C4FA6018DE693E00E941B2DA601DF
:101C6000440F551FB801660F771F63587C4F8DE7EF
:101C700093E00E941B2DB8016B587C4FA60185E7AD
:101C800093E00E941B2DEA94E09264031091640398
:101C9000DE01119640E0842F810FF41212C0809370
:101CA000640381E028960FB6F894DEBF0FBECDBF67
:101CB000DF91CF911F910F91FF90EF90DF90CF9028
:101CC00008955D91252F30E090E0BC016C597C4F68
:101CD000F901EE0FFF1FE55BFE4F0081FB01018361
:101CE000220F331FF901E45BFE4F2081FB012187A6
:101CF000518B880F991FFC01EC59FC4F128E118EED
:101D00004F5FC9CF08950E94820E0C948802CF9233
:101D1000DF92EF92FF920F931F93CF93DF93609127
:101D20008D0370918E0380918F03909190030E9498
:101D300007236B017C01EB010E94D122AB01BC01A6
:101D400040938D0350938E0360938F0370939003A1
:101D50008091DB049091DC04A091DD04B091DE045D
:101D60008F3F2FEF9207A207B207C9F0EE24FF249E
:101D70009701860100951095209530950817190751
:101D80002A073B0708F03EC08FEF9FEFDC018093EE
:101D9000DB049093DC04A093DD04B093DE04A091F7
:101DA0006403E4E6F3E02A2F30E08E0100951095FD
:101DB000A3132DC020936403F090910310E0F11061
:101DC00008C08091A904182F137019F0182F1695C8
:101DD000169580911402813009F43EC0882329F1C0
:101DE000823009F4DDC0833009F4E4C0F110F5C09D
:101DF000DF91CF911F910F91FF90EF90DF90CF90E7
:101E00000C94830E8C0D9D1DAE1DBF1DC0CF818D0A
:101E1000928D0817190720F421503F5F3296C8CFE2
:101E20008C0F9D1F928F818FF8CF109215024093D7
:101E3000D7045093D8046093D9047093DA0489E2EC
:101E4000E4E6F3E0AEEAB4E001900D928A95E1F7A2
:101E500081E080931402CACF80911802181316C033
:101E60009091A90493702091190230E081E09217BB
:101E7000130609F480E08170809317021331D8F4BF
:101E8000E12FF0E0E858F24D0C94F32C81E0F3CF11
:101E90008823F9F0C0911502CC0FCC0F04E00C0F91
:101EA000E02E043410F083E4E82ED0E0CE1528F0C4
:101EB00081E0033470F080E00CC020E040E060E09E
:101EC000CE010E94550A2196F1CF85E192E00E9451
:101ED000970C909115029F5F90931502811186CF08
:101EE00082E0809314028091170281117FCF11113B
:101EF0007DCF83E0AECF85E192E00E94D70CE9CFA1
:101F000085E192E00E942F0DE4CF85E192E00E94EE
:101F10008A0DDFCF85E192E00E949E0BDACF85E14A
:101F200092E00E94450BD5CF85E192E00E94DA0A4B
:101F3000D0CF85E192E00E94A20BCBCF85E192E069
:101F40000E94A60BC6CF85E192E00E94AA0BC1CFEA
:101F500085E192E00E94DE0ABCCF85E192E00E941A
:101F6000490BB7CF85E192E00E944D0BB2CF85E1DE
:101F700092E00E94E20AADCF85E192E00E94130C4C
:101F8000A8CF85E192E00E94170CA3CF85E192E0F3
:101F90000E941B0C9ECF85E192E00E94930C99CF8A
:101FA000109318028091A9048370809319020E94F3
:101FB000500A9FCF6091D7047091D8048091D904C2
:101FC0009091DA040E9407236A3171058105910519
:101FD00008F40CCF1092140209CFDF91CF911F911A
:101FE0000F91FF90EF90DF90CF900895E09158030C
:101FF000F091590309951092AE048FEF9FEF9093E3
:10200000C8048093C7049093CA048093C904909332
:10201000CC048093CB049093CE048093CD04909312
:10202000D0048093CF049093D2048093D1049093F2
:10203000D4048093D3049093D6048093D504109253
:10204000640390937E0380937D0390938003809339
:102050007F03909382038093810390938403809302
:1020600083039093860380938503909388038093E2
:10207000870390938A038093890390938C038093C2
:102080008B030E941421811104C00E94B1210E947F
:102090001E0A0E940E0A8091A9048C7F11F40C94F0
:1020A0001E0A0895CF93C82F882329F040E060E0EE
:1020B00080E00E94E70DC0939103CF910895E9EA73
:1020C000F4E0808191E089278083109214020C94BF
:1020D000160A8091A904982F969596959F5F9F73F5
:1020E0008370933148F4990F990F892B8093A90439
:1020F000109214020C94160A8460F8CF8091A904FF
:1021000084508093A904982F9C7F21F48370886465
:102110008093A904109214020C94160AE9EAF4E0E0
:102120008181885F81830C94160AE9EAF4E0818159
:10213000885081830C94160AE9EAF4E0228130E1A8
:10214000230F08F42FEF22830C94160AE9EAF4E037
:10215000228130E1231B08F420E022830C94160A2C
:102160002091AC0430E1230F08F42FEF213A20F442
:102170002093AC040C94160A80EA8093AC04FACF46
:10218000E9EAF4E0238130E1231B08F420E0238313
:102190000C94160AE9EAF4E0248130E1230F08F4F4
:1021A0002FEF24830C94160AE9EAF4E0248130E14D
:1021B000231B08F420E024830C94160AE9EAF4E0D7
:1021C000880F880F90819370982B9083109214023F
:1021D0000C94160A60E084E70E94961261E087E79B
:1021E0000C949612CF930E94F91484E70E943F1139
:1021F00087E70E943F11C0E021E041E061E08C2FC1
:102200000E94D411CF5FC334B9F760E084E70E9425
:10221000AB1261E087E7CF910C94AB12EFEFF5E0E2
:102220006083418324E630E042E050E0BF01880F44
:102230000C948A150F931F93CF93DF93082F000FF1
:10224000EB0114E21093FF05E0E0F6E0DE018D9172
:10225000819386E0E031F807D1F724E630E041E1F0
:1022600050E06FEF75E0802F0E948A15105F609636
:10227000143B41F7DF91CF911F910F910895CF93B8
:10228000DF93C82F4BE06DEF0E940E1140E06AE033
:102290008C2F0E940E118FE39CE90197F1F700C08B
:1022A000000040E060E08C2F0E940E1140E061E0F1
:1022B0008C2F0E940E1140E066E08C2F0E940E11C0
:1022C00040E06DEF8C2F0E940E11D0E040E06D2FAA
:1022D0008C2F0E940E11DF5FD231C1F740E06D2FCD
:1022E0008C2F0E940E11DF5FD432C1F740E06D2FBA
:1022F0008C2F0E940E11DF5FD43BC1F74BE06DEFD6
:102300008C2F0E940E1141E06AE08C2F0E940E116A
:1023100040E06DEF8C2FDF91CF910C940E11833440
:10232000910538F5880F991F880F991FFC01E05D12
:10233000FD4F5281338180818370E181A82FB0E00D
:1023400070E9879FC001112481529B4FE80FF92F3C
:10235000F11DB4976083FC01E50FF11DB497408334
:10236000830F911DFC01B4972083A854BC4F81E0DA
:102370008C930895FF920F931F93CF93DF93182FA1
:10238000062FF42ED0E0C0E02F2D402F612FCE017C
:102390000E948F112196C334D105B1F7DF91CF91FF
:1023A0001F910F91FF9008958F929F92AF92BF92CD
:1023B000CF92DF92EF92FF920F931F93CF93DF9311
:1023C000862EE82FF0E0DF01AA0FBB1FAA0FBB1F6C
:1023D000A05DBD4F11968C911197682F6452770BB9
:1023E0006B0112966C91129770E0CB0184978C016F
:1023F00097FF02C0095F1F4F73E0159507957A9507
:10240000E1F713966C9170E07B01A4E2EA1AF108FF
:10241000E701F7FC279633E0D595C7953A95E1F7A4
:1024200058E0A52EB12CB5010E94C02C982EC701F2
:10243000B5010E94C02C382FEE0FFF1FEE0FFF1FBB
:10244000E05DFD4FE081E370F0E07601D7FE03C070
:10245000B7E0EB0EF11C83E0F594E7948A95E1F781
:1024600052E15E9FC0015F9F900D11248C569C4FDE
:10247000E80EF92EF11CD701BC90C60168E070E0AF
:102480000E94C02C61E070E0DB0102C0AA0FBB1FFC
:102490008A95E2F7CD01882009F43FC08B29D70146
:1024A0008C9382E18E9FD0018F9FB00D1124AC568A
:1024B000BC4FA00FB11D5C9181E090E001C0880F7E
:1024C0009A94EAF7442361F1852B8C9342E14E9F65
:1024D000C0014F9F900D11248C569C4FC80FD92FCF
:1024E000D11D488181E090E001C0880F3A95EAF75C
:1024F0002223C9F0842B8883EE56FC4F81E0808331
:10250000DF91CF911F910F91FF90EF90DF90CF90CF
:10251000BF90AF909F908F90089580958B21BFCFF3
:1025200080958523D2CF80958423E5CFCF93DF9309
:10253000C62FD0E0C854DC4F9881992341F090E930
:10254000699FB001112461527B4F0E941A111882B9
:10255000DF91CF9108950F931F93CF93DF93082FAF
:10256000E62FF0E0EE56FC4F8081882379F082E17F
:10257000689FE0011124CC56DC4F10E04991612F97
:10258000802F0E940E111F5F1231C1F7DF91CF9192
:102590001F910F910895FA01811101C0FB01099467
:1025A0000F931F93CF938C01FB01C281CC2309F4BD
:1025B0004DC00E945F208272F801E25CFC45E4316C
:1025C000F10538F4E557F24D0C94F32C0E945F109E
:1025D000C0E08C2FCF911F910F9108954EE750E1ED
:1025E00069E670E10E94CB12F3CF49E650E16EE755
:1025F00070E1F8CF45E950E16EE870E1F3CF4EE8C5
:1026000050E165E970E1EECF46EA50E16CE970E136
:10261000E9CF4CE950E166EA70E1E4CF40EC50E1EB
:1026200060EB70E1DFCF40EB50E160EC70E1DACFBE
:1026300044ED50E16AEC70E1D5CF4AEC50E164ED35
:1026400070E1D0CF81E00E94DE10C2CFC1E0C1CFE7
:102650000F931F93CF93DF93C62FD42F022FFC012C
:1026600082818823C9F06093BC030E94C5229093A5
:10267000BB038093BA0380E28C0F883008F050C00F
:10268000C77081E001C0880FCA95EAF7DF91CF914A
:102690001F910F910C941C181091BC03161335C098
:1026A0008091BA039091BB030E94DD22883C910582
:1026B00060F5C0E2CD0F1D17B9F080E2810F8830C0
:1026C00040F4177081E001C0880F1A95EAF70E9464
:1026D0002318C83048F481E09D2F977001C0880FFF
:1026E0009A95EAF70E941C18802F0E940918C8309A
:1026F000B8F4D77081E001C0880FDA95EAF7DF916E
:10270000CF911F910F910C94231880E28C0F883089
:1027100038F4C77081E001C0880FCA95EAF7EFCF9F
:10272000DF91CF911F910F9108959C01CB01233F21
:102730004CE5340731F190F4283DFCE53F07E9F022
:10274000293D4CE5340769F1273D3C4579F426E203
:1027500041EE61EE0E94281380E00895253FFCE5DC
:102760003F07B9F090F0263F3C45B9F0FC0182816B
:102770008823D1F01092BC03089527E245EE65EE60
:10278000E9CF26E241EE60EEE5CF27E245EE64EECA
:10279000E1CF26E241EE62EEDDCF27E245EE66EEC6
:1027A000D9CF28E241E0EBCF81E00895CF93DF93CA
:1027B000EC01FB018281882309F419C1C230FCE5D8
:1027C000DF07C0F1C6319CE5D90730F09E012A5FD2
:1027D0003C452930310570F50E94272190931A0657
:1027E00080931906C031ECE5DE0709F4CFC008F08C
:1027F0005BC0C8308CE5D80709F4B6C088F5C43092
:10280000ECE5DE0709F4A8C0C0F4C2308CE5D807B7
:1028100009F49CC0809119068260C330DC4509F43C
:1028200098C08091190690911A060E9435210E9445
:10283000B61A80E0DF91CF910895809119068061EA
:10284000C630ECE5DE0709F484C080911906886083
:10285000C730DC4508F47DC080911906806279C0DC
:10286000CC308CE5D80709F489C070F48091190642
:102870008C60CA30ECE5DE0709F46BC008F478C060
:10288000809119068E7F65C0CE308CE5D80709F49B
:1028900079C0809119068B7FCF30DC4508F459C090
:1028A000809119068F7E55C0CB3FECE5DE0709F419
:1028B00057C030F5C3318CE5D80709F46FC078F400
:1028C000C131ECE5DE0709F465C0C231DC4509F031
:1028D000A8CF0E94B61A809119068F773AC0C531E9
:1028E0008CE5D80709F462C008F476C080911A0616
:1028F0008160CA3FDC4509F094CF80931A0691CFDE
:10290000CF3FFCE5DF0709F44DC088F480911A063B
:102910008D7FCD3F9CE5D90781F380911A068E7F8C
:10292000CE3FDC4550F380911A068360E6CFC1307C
:10293000FDE5DF0709F459C008F444C080E0C23067
:10294000DD4509F06ECF0E94B3216BCF809119064F
:1029500081608093190665CF809119068460F9CF54
:1029600080911A068260C9CF809119068064F1CFE8
:102970000E94B61A809119068068EBCF80911906E3
:102980008D7FE7CF80911906877FE3CF809119066D
:102990008F7DDFCF809119068F7BDBCF8091190669
:1029A000837FD7CF80911A068C7FA7CF809119069D
:1029B00082FB992790F921E0922790FB82F990FB06
:1029C00083F9C7CF80911A06982F909591708E7FCA
:1029D000892B90FB81F991CF0E94B61A909119062C
:1029E000892F97FB87F98058B4CF81E0ACCF81E085
:1029F00021CF1092B9008CE08093B8000895EF9237
:102A0000FF920F931F93CF93DF93182FEB01109238
:102A1000BC0084EA8093BC000E94C5227C018091A6
:102A2000BC0087FF27C08091B900887F883029F0DB
:102A30008091B900887F8031D9F51093BB0084E87C
:102A40008093BC000E94C5228C018091BC0087FF4E
:102A500024C02091B900287F90E080E02831B1F0B7
:102A600081E090E0203411F490E080E09195819530
:102A700091090CC0CF3FDC0791F20E94C5228E194C
:102A80009F098C179D0758F28EEF9FEFDF91CF9132
:102A90001F910F91FF90EF900895CF3FDC07A9F2AF
:102AA0000E94C522801B910B8C179D0770F2ECCF02
:102AB0008FEF9FEFEBCF0F931F93CF93DF93EB013C
:102AC0008093BB0084E88093BC000E94C5228C01E7
:102AD0008091BC0087FF11C02091B900287F81E060
:102AE00090E0283211F490E080E091958195910971
:102AF000DF91CF911F910F910895CF3FDC0741F3F4
:102B00000E94C522801B910B8C179D0708F38EEF46
:102B10009FEFEECFCF92DF92EF92FF920F931F9332
:102B2000CF93DF936B018A017901B9010E94FF14F1
:102B3000E6010C0D1D1DC017D10761F424E9209397
:102B4000BC00DF91CF911F910F91FF90EF90DF902C
:102B5000CF90089597FDF2CFB70189910E945B1540
:102B6000EACF9093C2038093C1030895E091C1031B
:102B7000F091C203309721F00190F081E02D09948B
:102B800080E00895E091C103F091C203309799F07D
:102B900020912C02222359F02091190627FF07C00B
:102BA000DC012C9111962C93119725E02C93028037
:102BB000F381E02D09940895E091C103F091C203DF
:102BC000309739F022E0DC012C930480F581E02D70
:102BD000099408952091BF033091C0032817390745
:102BE00071F09093C0038093BF03E091C103F09113
:102BF000C203309721F00680F781E02D09940895F3
:102C00002091BD033091BE032817390771F09093CE
:102C1000BE038093BD03E091C103F091C2033097DE
:102C200021F00084F185E02D0994089585B780682E
:102C300085BF85B7806885BF0895089508950C9471
:102C40001D1608950C9421160E9416160E941E1639
:102C50000C941F1681E008950E94BC220E94350644
:102C60000E946C230C9422167F928F929F92AF92B7
:102C7000BF92CF92DF92EF92FF920F931F93CF9369
:102C8000DF93CDB7DEB72A970FB6F894DEBF0FBE3D
:102C9000CDBF0E949D060E942A16882309F471C0A8
:102CA00044ECA42E43E0B42E10E000E0702E802F00
:102CB0000E942B066C01F501819091905F018816AE
:102CC000990609F458C08091660481FD0E9434067B
:102CD00080E0EE24E394F12C8C249D2494012E2199
:102CE0003F21232B09F441C08E837F82CE20DF2039
:102CF00081E0CD2809F480E088870E94C5228160A8
:102D0000782F9A8789874E815F8168858A850E949E
:102D1000E616000F111FF801EC53FC4F80819181E2
:102D2000E826F926F182E0820E94F9240E94B61575
:102D30009091C3038917B1F10E94B6158093C30324
:102D40002A960FB6F894DEBF0FBECDBFDF91CF91AC
:102D50001F910F91FF90EF90DF90CF90BF90AF90B9
:102D60009F908F907F900C94FE028F5FEE0CFF1C63
:102D70008F3009F0B3CF0F5F1F4F0530110509F0F9
:102D800095CF8FEF89838A831B820E94C522816041
:102D9000782F9D838C8349815A816B818D810E941C
:102DA000E616C2CF2A960FB6F894DEBF0FBECDBF8F
:102DB000DF91CF911F910F91FF90EF90DF90CF9017
:102DC000BF90AF909F908F907F900895CF93DF93A7
:102DD000CDB7DEB72B970FB6F894DEBF0FBECDBFD1
:102DE0004F83588769877A878B871E821D8285E08B
:102DF000FE013796DE01119601900D928A95E1F75A
:102E000049815A816B817C818D819E812B960FB681
:102E1000F894DEBF0FBECDBFDF91CF910C94561D4D
:102E2000FC01808191810C940C20882309F4C1C09D
:102E30009CEF980F913A20F40E943A200C94AB201A
:102E400090E2980F983050F4877091E001C0990F8C
:102E50008A95EAF7892F0E946220F0CF9BE5980FB0
:102E6000933070F4853A31F0863A39F083E890E097
:102E70000C94EA1581E890E0FBCF82E890E0F8CF6F
:102E800098E5980F973108F08EC0883A09F446C04B
:102E9000893A09F446C08A3A09F446C08B3A09F4E3
:102EA00046C08C3A09F446C08B3B09F446C08C3BC3
:102EB00009F446C08D3A09F446C0803B09F446C087
:102EC0008E3A09F446C08F3A09F446C0813B09F4B2
:102ED00046C0823B09F446C0833B09F446C0843BAC
:102EE00009F446C0853B09F446C0863B09F446C058
:102EF000873B09F446C0883B09F446C0893B09F486
:102F000046C08D3B09F446C08E3B09F446C08A3B5F
:102F100009F446C090E080E00C94001682EE90E048
:102F2000FBCF89EE90E0F8CF8AEE90E0F5CF85EB0D
:102F300090E0F2CF86EB90E0EFCF83EB90E0ECCF28
:102F400084EB90E0E9CF87EB90E0E6CF8CEC90E06B
:102F5000E3CF8DEC90E0E0CF83E891E0DDCF8AE82D
:102F600091E0DACF82E991E0D7CF84E991E0D4CF44
:102F700081E292E0D1CF83E292E0CECF84E292E090
:102F8000CBCF85E292E0C8CF86E292E0C5CF87E260
:102F900092E0C2CF8FE690E0BFCF80E790E0BCCF59
:102FA0008AE292E0B9CF803F20F00E9407240C947F
:102FB000EE240895882361F19CEF980F913A20F454
:102FC0000E9441200C94AB2090E2980F983050F46E
:102FD000877091E001C0990F8A95EAF7892F0E94C6
:102FE0006820F0CF9BE5980F933020F490E080E0CC
:102FF0000C94EA1598E5980F973120F490E080E062
:103000000C940016803F20F00E946F240C94EE2454
:103010000895CF93C82F0E941517C93349F42FEF95
:1030200087EE93E0215080409040E1F700C000001F
:103030008C2FCF910C94DA17882321F00E94622004
:103040000C94AB200895882321F00E9468200C94F2
:10305000AB200895BF92CF92DF92EF92FF920F9331
:103060001F93CF93DF936C01D62FC72FFC010581EF
:1030700002950F70128111110E947F200E9458202A
:10308000E82E882371F01123B1F080E28D0F883093
:1030900090F082E00E94F6200E94582091E0E82EF5
:1030A000E926BC2EB2949FE0B922EB2DF0E0E15668
:1030B000F24D0C94F32CE12CF4CF0C2F0F70C07F49
:1030C00011F00295007F1123A9F0002359F080E24E
:1030D0008D0F883010F0D11109C0802F0E9462201E
:1030E0000E94AB208D2F0E94151714C0802F0E94C4
:1030F0007220F6CF8D2F0E94DA17002359F080E25C
:103100008D0F883010F0D1112CC0802F0E946820C4
:103110000E94AB202B2D2850330B2430310520F496
:103120000E94B6150E94FE02EE2009F4D5C10E944D
:10313000542080FDD1C1F60112820E944E200E94CF
:10314000DA1EC6010E94761A0E944E20DF91CF91AE
:103150001F910F91FF90EF90DF90CF90BF900C9454
:10316000FB1E802F0E947820D3CFFC2FFF70FF2EF4
:10317000C07FC03219F0F29480EFF822DD2369F0AD
:10318000D13049F1112391F1002351F1F6018581EC
:1031900080FFA8CF8F70858323C0112381F0011198
:1031A00006C00E9492208F290E941C18B3CF0130C4
:1031B000C1F70E9492208F290E949820ABCF011165
:1031C00006C00E94A1208F2D0E942318A3CF01309A
:1031D00009F4A0CFF6CF112329F0063008F09ACFDA
:1031E0008F2DE2CF053008F095CFEDCF002359F3B6
:1031F000D93349F4FFEF27EE33E0F150204030405F
:10320000E1F700C000008D2F0E94DA1783CF8C2FCA
:1032100086958695837069F0813009F07BCF8D2F7C
:103220009C2F9370111102C090E080E00E94001664
:1032300071CF8D2F9C2F9370111102C090E080E010
:103240000E94EA1567CF112309F1D53F99F0D63FC7
:10325000B9F0D43F49F4809113069091140681602F
:1032600090931406809313068D2F0E9407240E94CA
:10327000EE2450CF80911306909114068260F0CF17
:1032800080911306909114068460EACFD53F89F0AF
:10329000D63FA9F0D43F49F48091130690911406CB
:1032A0008E7F90931406809313068D2F0E946F24B7
:1032B000DECF80911306909114068D7FF2CF80911E
:1032C0001306909114068B7FECCF8C2F837009F03E
:1032D00041C011111FCF4D2F429546954770440FA5
:1032E000440F0D2F0F7010E030E020E0042E04C0DA
:1032F000000F111F221F331F0A94D2F760E070E005
:10330000CB01D4FF0FC06FE070E080E090E004C01C
:10331000660F771F881F991F4A95D2F760957095A1
:1033200080959095C695C695C370602B712B822BA6
:10333000932BC23049F058F4C13019F00E948C1E12
:10334000E9CE0E947A1EE6CE0E949E1EE3CE0E9427
:10335000781EE0CE8695112311F08C2F8170882382
:1033600009F4D8CE4D2F429546954770440F440F2F
:103370000D2F0F7010E030E020E0042E04C0000F8D
:10338000111F221F331F0A94D2F760E070E0CB01B7
:10339000D4FF0FC06FE070E080E090E004C0660FE3
:1033A000771F881F991F4A95D2F760957095809571
:1033B0009095C695C695C370602B712B822B932B6D
:1033C000C23049F058F4C13019F00E94511FA2CE0A
:1033D0000E943F1F9FCE0E94631F9CCE0E94B41E7E
:1033E00099CECF70112329F08C2F0E94DA1E8D2FD9
:1033F000DBCE8D2F0E9423188C2F0E94FB1E8ACEBD
:10340000D23F89F160F4D03FC9F0D13F29F11123B7
:1034100009F442C0011166CE8C2F8F7121C0D33FB9
:1034200039F1D43FA1F7112369F1CF718C2F0E949C
:10343000DA1E63E08C2F0E94E1206CCE112341F054
:10344000053008F067CE8C2F8F710E941E1F62CE50
:10345000063008F05FCEF7CF8C2F8F71112369F201
:103460000E94DA1E57CE8C2F8F711123C9F3C5CF5E
:10347000112329F08C2F8F710E94C51E4BCE0E9404
:10348000C01E48CE81E00E94F620023008F442CEF1
:1034900082E00E94F6203ECE002359F0D93309F095
:1034A000B2CE8FEF97EEE3E081509040E040E1F73D
:1034B000A8CE8C2F8F71A1CF4C2F4F706D2FC601CE
:1034C0000E947A030E94F01D25CE4C2F4F706D2F65
:1034D000C6010E947D031ECEDF91CF911F910F91F7
:1034E000FF90EF90DF90CF90BF9008950F931F93C0
:1034F000CF93DF93EC018B819C81892B29F088810C
:10350000998189238F3F29F4DF91CF911F910F91EA
:103510000895CE010E9416038823B1F36881798152
:103520008A810E9416208C010E94751F0E94771EBE
:10353000B801CE01DF91CF911F910F910C942A1801
:103540000E947F200E948F200E94AB200E94902525
:103550000E94EE2490E080E00E94EA1590E080E076
:103560000C9400160E9448200C94A01A0E946F2010
:103570000C94B21AE92FE295EF70E250EE3070F43D
:10358000F0E0E155F24D0C94F32C803F19F020F45B
:10359000883E20F481E00895843FE1F380E00895BF
:1035A000883EC0F3813FD1F7F5CF93FB882780F9A0
:1035B00008950E940C200C94BA1ACF93DF9300D088
:1035C00000D00F92CDB7DEB70F900F900F900F90F5
:1035D0000F90DF91CF910895CF93DF9300D000D06B
:1035E00000D0CDB7DEB726960FB6F894DEBF0FBE7B
:1035F000CDBFDF91CF9108951F93CF93DF93C091FB
:10360000CF0316E08091D0038C1304C0DF91CF91DB
:103610001F910895D0E01C9FF0011D9FF00D112413
:10362000EF52FC4F40815181628173818481958189
:103630000E94EC1A2196C770E5CF40910104509189
:103640000204609103047091040480910504909138
:1036500006040C94EC1A1F93CF93DF938091060419
:10366000807FC1F4809103048823A1F08091CF036F
:10367000C091D00360910104709102044091040450
:1036800050910504D62FD723DA01A095B09516E006
:10369000C81304C0DF91CF911F91089590E04115A8
:1036A000510511F0DF3F31F401968770F1CF2A0FF9
:1036B0003B1F17C0189FF001199FF00D1124EF5206
:1036C000FC4F21812713F0CF20812613EDCF2281DB
:1036D0002111EACF238134812417350740F3241BBD
:1036E000350B283C310500F7209106042F7020612E
:1036F0002093060426E0289FF001299FF00D112455
:10370000EA52FC4F80818F708061808381E094E079
:103710000E94761ADF91CF911F910C94FC1ABF92F0
:10372000CF92DF92EF92FF920F931F93CF93DF938D
:10373000CDB7DEB761970FB6F894DEBF0FBECDBF31
:103740008C0185E0F801DE011D9601900D928A95AD
:10375000E1F7D8014C9111965C9111971296EC907B
:1037600012978091040490910504009709F47FC199
:103770002091010430910204622F63236F3F09F40A
:1037800076C11396CD90DC90B0900304BB2009F471
:1037900011C1C816D906D0F1F601E81BF90BCF010B
:1037A000FF24F394883C910508F0F12C80910604E5
:1037B000982F907FFF2009F4B8C091117FC0FE2C94
:1037C000351329C0241327C0E11025C08F708061F4
:1037D000809306040E941D1B81E094E00E94761AEB
:1037E00080910604D80115968C938F2D61960FB6A3
:1037F000F894DEBF0FBECDBFDF91CF911F910F9127
:10380000FF90EF90DF90CF90BF90089580959095B6
:103810008C0D9D1DC5CFCD2829F0852F84238F3F8A
:1038200009F041C180E0B82FB170DB2E80FF3CC0B1
:103830008091CF032091D00336E0821315C04D87CD
:103840005E878D859E850E940C20292F22952F70E2
:103850002230F0F0243018F59F70F1F0F8019581D6
:10386000907FD1F4D12C1EC090E0389FF001399F99
:10387000F00D1124EF52FC4F6181651306C0608189
:10388000641303C06281E6120FC001968770D5CF22
:103890009F7011F0882331F3805E883018F3C801DF
:1038A0000E94761AFD2CA1CFEE2009F49ECF8091C4
:1038B0000604816080930604F12C97CF351306C06F
:1038C000241304C0D801EE2009F49AC04D875E8706
:1038D0008D859E850E94D91A882319F1EE2009F161
:1038E00080910604803270F020910104309102042E
:1038F00038872F831986DB86CA868C87CE01079688
:103900000E94761A86E0F801A1E0B4E001900D92E1
:103910008A95E1F70E942B1B0E941D1BFF24F39444
:1039200064CFC8010E94761AF9CF911113C07C2D83
:10393000D98AC88A6E2D89890E94DD1A81E094E0B7
:103940000E94761A86E0E1E0F4E0DF011D928A959C
:10395000E9F763C0351312C0241310C0E1100EC084
:10396000F8018583C8010E94761AE1E0F4E086E060
:10397000DF011D928A95E9F7FB2C37CF4D875E87D3
:103980008D859E850E94D91A882359F2EE2049F22E
:1039900080910604803208F4B5CF20910104309163
:1039A00002043A8329831B82DD82CC828E83CE017E
:1039B0000196A6CFC816D90698F1F601E81BF90BB7
:1039C000CF01F12C883C910508F049C0FE2CEE2077
:1039D00009F4A7CF351332C0241330C080910604F8
:1039E00080FD23C0982F907F01F1D80115968C930C
:1039F0001597903F39F0982F907F905F8F70892BAB
:103A000015968C93C8010E94761A86E0F801A1E011
:103A1000B4E001900D928A95E1F70E941D1BE5CE5E
:103A2000809590958C0D9D1DCCCF86E0F801A1E08E
:103A3000B4E001900D928A95E1F7D7CE4D875E876D
:103A40008D859E850E94D91A81115CCF80910604D4
:103A5000816080930604C8010E94761AC6CE7C2D30
:103A6000D98AC88A6E2D89890E94DD1A6BCFEE2013
:103A700009F457CF4D875E878D859E850E94D91AA0
:103A8000F82E882309F44DCF86E0F801A1E0B4E0D8
:103A900001900D928A95E1F781E094E00E94101761
:103AA0000E942B1BBACF81E08E25BDCE1F93CF93F2
:103AB000DF93CDB7DEB72C970FB6F894DEBF0FBEFD
:103AC000CDBF4F83588769877A878B879C87CE01C4
:103AD00007960E948F1B882369F08A859B85892B16
:103AE00039F04F815885842F85238F3F09F071C0AD
:103AF00016E05FC086E0FE013796DE011196019068
:103B00000D928A95E1F78A859B85892B89F38885B3
:103B10009F8189238F3F61F32091D00330E0C90159
:103B20000196877099274091CF034817190671F4C1
:103B30000E94B61A1092D0031092CF0386E0E1E003
:103B4000F4E0DF011D928A95E9F7D2CF96E0929FCB
:103B5000D001939FB00D1124AF52BC4FFE0131969E
:103B600001900D929A95E1F78093D0030E94FC1A80
:103B7000BFCF819FC00111248F529C4F0E948F1B89
:103B80008823E9F0E091CF031E9FF0011124EF524A
:103B9000FC4F4081518162817381848195810E94B3
:103BA000EC1A8091CF0390E001968770992780935B
:103BB000CF038091CF039091D0038913DACF2C9655
:103BC0000FB6F894DEBF0FBECDBFDF91CF911F912E
:103BD000089569857A858B859C850E94EC1A88CF2B
:103BE000EF92FF920F931F93CF93DF938C01892B5A
:103BF00081F0F12CEE24E394E8012196F801849100
:103C0000843770F4843008F05FC08130B1F08230C6
:103C1000A1F1DF91CF911F910F91FF90EF90089547
:103C2000853709F44CC008F43DC09CE7980F9037E5
:103C300080F78F770E94DA1749C00E5F1F4FFE0191
:103C4000849190E2980F983060F48770FE2D01C047
:103C5000FF0F8A95EAF78F2F0E9482200E94AB20E7
:103C600002C00E9415178F2D815030F2EFE9FFE05E
:103C70003197F1F700C00000F7CF0E5F1F4FFE0134
:103C8000849190E2980F983050F48770FE2D01C017
:103C9000FF0F8A95EAF78F2F0E948820DFCF0E94BE
:103CA000DA17E1CF0E5F1F4FFE01C491C150D8F269
:103CB0008FE99FE00197F1F700C00000F7CF0E5F9A
:103CC0001F4FFE01F490CFCF0E9415178E01CBCF6E
:103CD00008950C94681E0E94691E60933D047093C1
:103CE0003E0480933F04909340040C94A01A0895DE
:103CF0000C946B1E0F931F9300913D0410913E0492
:103D000020913F0430914004602B712B822B932B28
:103D10001F910F910C946B1E0F931F9300913D0404
:103D200010913E0420913F043091400460237123A0
:103D3000822393231F910F910C946B1E0F931F935B
:103D400000913D0410913E0420913F0430914004C5
:103D500060277127822793271F910F910C946B1E68
:103D60000C94681E0C94B01E0E94B21E609339041D
:103D700070933A0480933B0490933C040C94A01AF3
:103D800060E070E0CB010C94B41E0F931F9341E0F0
:103D900050E060E070E08A019B0104C0000F111F39
:103DA000221F331F8A95D2F7C901B8011F910F91C5
:103DB0000C94B41E0F931F9341E050E060E070E05C
:103DC00004C0440F551F661F771F8A95D2F7809154
:103DD000390490913A04A0913B04B0913C048A01CB
:103DE0009B01082B192B2A2B3B2BC901B8011F91D2
:103DF0000F910C94B41E0F931F9341E050E060E0CC
:103E000070E004C0440F551F661F771F8A95D2F7D4
:103E1000CB01BA0160957095809590950091390419
:103E200010913A0420913B0430913C0460237123AB
:103E3000822393231F910F910C94B41E0F931F9311
:103E400041E050E060E070E004C0440F551F661F81
:103E5000771F8A95D2F78091390490913A04A09106
:103E60003B04B0913C048A019B01082719272A27AB
:103E70003B27C901B8011F910F910C94B41E0F93F9
:103E80001F930091390410913A0420913B04309122
:103E90003C04602B712B822B932B1F910F910C9460
:103EA000B41E0F931F930091390410913A0420918E
:103EB0003B0430913C0460237123822393231F91A0
:103EC0000F910C94B41E0F931F930091390410911D
:103ED0003A0420913B0430913C04602771278227EB
:103EE00093271F910F910C94B41E08952FE0929F79
:103EF000800D1124982F977041E001C0440F9A95CE
:103F0000EAF786958695869595E0899FF0011124BC
:103F1000E95FFB4F90E080E070E05191DF01119785
:103F20009B01082E02C0369527950A94E2F721706E
:103F300021952527242325272C930196853091054B
:103F400061F708952FE0929F800D1124982F9770AC
:103F500086958695869525E0829FF0011124E95F7C
:103F6000FB4F50E040E080E0219130E0092E02C09C
:103F7000369527950A94E2F721703327042E01C065
:103F8000220F0A94EAF7822B4F5F5F4F45305105AD
:103F900059F70895BF92CF92DF92EF92FF920F935D
:103FA0001F93CF93DF938C01C0903904D0903A04D3
:103FB000E0903B04F0903C0480913D0490913E04DD
:103FC000A0913F04B0914004C82AD92AEA2AFB2ACA
:103FD000CFE1D0E0BC2ED701C6010C2E04C0B695AF
:103FE000A795979587950A94D2F780FD0EC02197E3
:103FF00088F7B12C8B2DDF91CF911F910F91FF90FE
:10400000EF90DF90CF90BF900895B8018C2F0E9461
:104010009A03019761F3EECFCF93DF93EC010E94F7
:10402000CA1FBE01DF91CF910C949A031F93CF93C7
:10403000DF93EB019091CE03992331F0CB01DF9117
:10404000CF911F910C940C20882379F0CB010E9412
:10405000CA1F182F682FCE010E94761FBE01812F24
:10406000DF91CF911F910C949A03CB010E94A21F64
:10407000182FF4CF682F80911A0290911B020C9494
:104080001C22682F80911A0290911B020C94272207
:1040900080911A0290911B020C943222809141046B
:1040A000859585958595089580914104877008953B
:1040B00090914104977081E009F480E00895809127
:1040C0006504089590916504892B80936504089593
:1040D00080959091650498239093650408951092BB
:1040E0006504089590916404892B80936404089575
:1040F000809590916404982390936404089510929D
:104100006404089590916304892B80936304089557
:10411000809590916304982390936304089510927E
:104120006304089580914204089508950C949520A5
:1041300090914204981721F0809342040C949620A9
:10414000089580914204882329F01092420480E06F
:104150000C9496200895E0911A02F0911B02809130
:1041600065048083E0911A02F0911B028081909196
:104170006404892B8083E0911A02F0911B028081F4
:1041800090916304892B808390914204992381F05C
:10419000E0911A02F0911B028081892B808380912B
:1041A0001A0290911B020E94B82181110E94A12045
:1041B00080911A0290911B020C94C21508950C94E0
:1041C000DE2098E0899F90011124622B60934104C6
:1041D0000E94DA1E809141048595859585950C9401
:1041E000DF201092410480E00C94DF209091410484
:1041F0008095892380934104282F277071F4282FFC
:10420000082E000C330B9217130639F0859585950F
:1042100085950E94FB1E0C94F12008956FEF7FEFAF
:1042200090E080E00C94702D90E080E00E943C2DA6
:1042300021E08C3E9E4F09F020E0822F089582E01D
:1042400090E00C94342D83E090E00C94342DCF93C7
:1042500084E090E00E94342DC82F81E290E00E941B
:10426000342D982F8C2FCF910895CF93C92F682F7D
:1042700084E090E00E94522D6C2F81E290E0CF917B
:104280000C94522DAB01BC018FE090E00C94642D96
:10429000AB01BC0183E190E00C94642D60E070E020
:1042A000CB010C94482160E070E0CB010E944221D8
:1042B0000C944E216CEE7EEF90E080E00E94702D19
:1042C00060E082E090E00E94522D60E083E090E0A8
:1042D0000E94522D10923D0410923E0410923F0411
:1042E0001092400460E084E090E00E94522D60E073
:1042F00081E290E00E94522D60E085E090E00E9413
:10430000522D60E086E090E00E94522D6FEF87E032
:1043100090E00E94522D40E050E0BA0188E090E029
:104320000E94642D60E08DE090E00E94522D40E0FC
:1043300050E0BA0188E190E00E94642D60E087E1DE
:1043400090E00E94522D40E050E0BA018CE190E0F4
:104350000E94642D60E080E290E00E94522D0C9457
:1043600053210C945A21682F8EE090E00C94522D2A
:10437000FC01329680912C02882321F0809119064D
:104380009EE187FF96E080E0915008F40895219126
:104390002223D1F38F5FF8CF9C01FC0132969FEF6F
:1043A00080E04191461751F09F3F19F4411101C03F
:1043B000982F8F5F8630A9F79F3F09F40895290F42
:1043C000311D97FD3A95F90162830895FC013296FB
:1043D00008962191261303C0DF0111971C92E8175C
:1043E000F907B9F70895E62FE695E695E695EE31DB
:1043F00068F4E80FF92FF11D677021E030E001C08B
:10440000220F6A95EAF78281822B82830895E62F34
:10441000E695E695E695EE3170F4E80FF92FF11D7B
:10442000677021E030E001C0220F6A95EAF720951D
:10443000828128232283089520912C02222329F0AF
:104440002091190627FD0C94F3210C94CC21209186
:104450002C02222329F02091190627FD0C94072213
:104460000C94E621FC01329680912C02882351F0B5
:104470008091190687FF06C08EE1DF011D928A95A3
:10448000E9F7089586E0F9CF089508950E947E0225
:1044900080911F06843049F11092670488E190E012
:1044A00020E40FB6F894A895809360000FBE209387
:1044B000600080E00E94FE020E947E0283B7817F3E
:1044C000846083BF83B7816083BF7894889583B706
:1044D0008E7F83BF0FB6F894A895809160008861A5
:1044E00080936000109260000FBE08950895CF93EE
:1044F0000E9444220E949D060E947622C0E08C2FDA
:104500000E942B06892B31F4CF5FC530C1F780E0C4
:10451000CF91089581E0FCCF08950E94B61A0E94C1
:10452000B6150E94FE020C9483021F921FB61F92C2
:1045300011248F939F93AF93BF9380916704811150
:1045400013C08091150690911606A0911706B091A0
:1045500018064196A11DB11D80931506909316066D
:10456000A0931706B0931806BF91AF919F918F91BA
:104570001F901FBE1F90189582E084BD93E095BDEB
:104580009AEF97BD80936E0008952FB7F8948091AD
:10459000150690911606A0911706B09118062FBF28
:1045A00008952FB7F89460911506709116068091C2
:1045B0001706909118062FBF0895CF92DF92EF92C1
:1045C000FF920F931F932FB7F894409115065091C7
:1045D000160660911706709118062FBF6A017B01BD
:1045E000EE24FF248C0130E020E0C016D106E20664
:1045F000F30650F0481B590BCA011F910F91FF9011
:10460000EF90DF90CF90089541505109F3CFAB0167
:10461000BC012FB7F8948091150690911606A091D1
:104620001706B09118062FBF84179507A607B7077E
:1046300038F0841B950BA60BB70BBC01CD01089578
:104640000197A109B109F5CF78941F921FB61F9267
:1046500011248F939F93AF93BF93809115069091F0
:104660001606A0911706B09118060196A11DB11D5E
:104670008093150690931606A0931706B09318061C
:10468000BF91AF919F918F911F901FBE1F90189562
:1046900081E08093E00080E28093D8001092C9000E
:1046A0008FE19EE40197F1F700C0000087E090EBF6
:1046B000DC018093280690932906A0932A06B093E4
:1046C0002B0688E19CE00FB6F894A89580936000D3
:1046D0000FBE90936000FFCF0E941421811102C091
:1046E0000E94B1210E941F21809366040E9427210D
:1046F00090931A06809319060E942321682F70E078
:1047000090E080E00C94781E80916B0480FF12C0D2
:1047100060911F0285E0689FB0011124759567952F
:104720007595679560387105A8F561157105A1F15A
:10473000862F089581FF09C060911F0285E0689F60
:10474000B001112475956795EDCF60911F0282FD30
:104750000AC080916A048823D1F090911E02609172
:104760001F02891728F085E0689FB0011124DACF75
:10477000869FB001112485E0869F9001879F300DB0
:104780001124692F70E0C9010E94C02CCBCF65E0D5
:1047900070E0CECF8FE7089581E0089580916B049B
:1047A00080FF0CC060911D0270E07595679575954E
:1047B00067956115710549F1862F089581FF06C03F
:1047C00060911D0270E075956795F3CF60911D02B1
:1047D00082FD0BC090916A049923A1F060911C02A4
:1047E00080911D02961738F0682F70E060387105CF
:1047F00000F38FE70895899FC001112470E00E94A3
:10480000C02CF4CF61E070E0D7CF81E00895803F05
:1048100031F40E948423819580936F040895813F31
:1048200019F40E948423F8CF823F31F40E9484233C
:10483000819580936E040895833F19F40E94842328
:10484000F8CF893F29F40E94CE2380937004089505
:104850008A3F21F40E94CE238195F7CF8B3F31F41C
:104860000E94CE2381958093710408958C3F19F4A2
:104870000E94CE23F8CF843F31F480916D04816093
:1048800080936D040895853F21F480916D048260CA
:10489000F7CF863F21F480916D048460F1CF873F8C
:1048A00021F480916D048860EBCF883F21F48091E2
:1048B0006D048061E5CF8D3F31F480916B048160A0
:1048C00080936B0408958E3F21F480916B04826085
:1048D000F7CF8F3FB9F780916B048460F1CF90914F
:1048E0006E04803F41F480916F0487FD10926F0445
:1048F000992371F00895813F29F480916F0418166F
:10490000ACF3F6CF823F81F497FFF2CF10926E04A2
:1049100080916F0490917004892B90917104892B80
:1049200049F710926A040895833F19F4191674F335
:10493000DFCF893F39F4809170041816CCF61092BD
:104940007004D6CF8A3F29F48091700487FFD0CFBE
:10495000F6CF8B3F39F48091710487FFC9CF109255
:104960007104C6CF8C3F29F4809171041816BCF3F2
:10497000BFCF843F31F480916D048E7F80936D04AE
:10498000B7CF853F21F480916D048D7FF7CF863FAF
:1049900021F480916D048B7FF1CF873F21F48091CA
:1049A0006D04877FEBCF883F21F480916D048F7E6B
:1049B000E5CF8D3F31F480916B048E7F80936B0443
:1049C00097CF8E3F21F480916B048D7FF7CF8F3F7F
:1049D00009F08ECF80916B048B7FF0CF8CE694E052
:1049E0000E94DC150E94C52290936904809368049C
:1049F00008951F93CF93DF93809168049091690489
:104A00000E94DD22AC0190916A042091200230E0E6
:104A1000911106C0209121028AE0289F9001112463
:104A20004217530778F020916E04C0916F04D09123
:104A3000700410917104211109C08C2F8D2B812BD2
:104A400009F06AC0DF91CF911F9108959F3F19F03F
:104A50009F5F90936A04121624F40E94842380932B
:104A60006E0480916E0487FF05C00E9484238195A7
:104A700080936E041C1624F40E94842380936F0498
:104A800080916F0487FF05C00E94842381958093E5
:104A90006F0430916E043323A1F020916F04222320
:104AA00081F045EB3403C0011124992369F19093FF
:104AB0006E0445EB240390011124332349F1309314
:104AC0006F041D1624F40E94CE23809370048091FD
:104AD000700487FF05C00E94CE23819580937004E7
:104AE000111624F40E94CE238093710480917104E6
:104AF00087FF05C00E94CE23819580937104DF91CA
:104B0000CF911F910C94EE2481E080936E04D1CF5D
:104B100081E080936F04D5CF9F3F09F099CFAACF52
:104B200086E0ECE6F4E0DF011D928A95E9F7109249
:104B30006A0410926B0408958091920408950F9373
:104B40001F93CF93DF9300D00F92CDB7DEB78C01C8
:104B50000E94FE27823011F0843021F584E08983A1
:104B60001B830A8382E08093E9008FEF9091E80035
:104B7000815095FD06C095ED9A95F1F700008111E1
:104B8000F5CF8091E80085FF0DC050E040E063E084
:104B900070E0CE0101960E941B288091E8008E777C
:104BA0008093E8000F900F900F90DF91CF911F91AD
:104BB0000F910895CF93DF9300D00F92CDB7DEB75A
:104BC00020911F06243031F523E029838058910974
:104BD0009B838A8382E08093E9008FEF9091E800C5
:104BE000815095FD06C095ED9A95F1F70000811171
:104BF000F5CF8091E80085FF0DC050E040E063E014
:104C000070E0CE0101960E941B288091E8008E770B
:104C10008093E8000F900F900F90DF91CF9108954F
:104C2000CF93DF93EC010E94FE27823011F0843095
:104C3000F9F482E08093E9008FEF9091E8008150D1
:104C400095FD06C095ED9A95F1F700008111F5CF1D
:104C50008091E80085FF0CC050E040E066E070E025
:104C6000CE010E941B288091E8008E778093E80097
:104C7000DF91CF910895CF93DF93EC010E94FE273F
:104C8000823011F08430B9F580912C028823B1F183
:104C90008091190687FF32C060E282E08093E900CC
:104CA0008FEF9091E800815095FD06C095ED9A95A3
:104CB000F1F700008111F5CF8091E80085FF1BC05E
:104CC00080912C0270E050E040E0811104C050E07F
:104CD00040E068E070E0CE010E941B288091E8006F
:104CE0008E778093E80080E2FE01A2E7B4E00190B5
:104CF0000D928A95E1F7DF91CF91089568E081E008
:104D0000CDCF80911E06811109C00E94AB290E945F
:104D1000082A8091E20084608093E2000895109256
:104D20001E060895089508950C948D2242E061ECCA
:104D300081E00E94272942E261EC82E00C9427295D
:104D400080912106833009F45FC030F48130C1F1D5
:104D5000823009F49BC008958A3009F487C08B30F3
:104D600009F46DC0893009F04EC08091200681326F
:104D700009F049C08091240690912506029708F019
:104D800042C08091E800877F8093E8008091E8002E
:104D900082FF35C09091F3008091F200029729F4D0
:104DA0008091F1008B7F813021F48091F10080931C
:104DB00092048091E8008B778093E8000C945B2943
:104DC00080912006813AF9F48091E800877F8093F2
:104DD000E8008091240690912506892B61F460E219
:104DE00082E794E070E00E946A288091E8008B7767
:104DF0008093E800089560E090E080E0F3CF809138
:104E00001F068111C3CF089580912006813AD9F7FA
:104E10008091240690912506892BA9F78091E800BE
:104E2000877F8093E8008091E80080FFFCCF80912D
:104E30002C028093F1008091E8008E77BDCF8091A5
:104E40002006813201F78091240690912506892B56
:104E5000D1F68091E800877F8093E8000E945B296B
:104E60008091220680932C020C94B61A8091200621
:104E7000813249F68091E800877F8093E8000E94A4
:104E80005B298091230680939304089580912006E6
:104E9000813A09F0B8CF8091E800877F8093E800DD
:104EA0008091E80080FFFCCF80919304C2CF84B74B
:104EB000877F84BF0FB6F894A895809160008861C1
:104EC00080936000109260000FBE80E890E00FB603
:104ED000F89480936100909361000FBE0E942416A5
:104EE0000E94AB290E94082A8091E200846080938E
:104EF000E20078940E94912C0E942C1682E292E0AB
:104F00000E94B11580911F06853019F00E94341659
:104F1000F9CF0E94462280911D06882399F30E94B2
:104F20007722882379F30E940528ECCF0C949827E8
:104F3000292F33272330310519F168F42130310549
:104F400009F44AC02230310509F44BC090E080E0FA
:104F500030E020E028C02132310579F122323105DC
:104F6000A9F780E490E02DE134E061157105D9F0F6
:104F700080EC90E02DE533E061307105A1F0E6CFE3
:104F800099278130910599F0009741F08230910581
:104F900089F00397D9F6E8EDF2E002C0ECE0F3E027
:104FA000849190E09F01FA01318320830895EAEF14
:104FB000F2E0F6CFEEEDF2E0F3CF89E090E022E20E
:104FC00033E06115710579F389E090E02BE333E07C
:104FD0006130710541F3BACF82E190E02BE433E018
:104FE000E2CF8BE390E020E133E0DDCF80911F063C
:104FF000843011F482E0089581E008958091940452
:10500000811102C00C94F627089580E189BD82E1E8
:1050100089BD09B400FEFDCF8091D8008F7D8093BB
:10502000D8008091E00082608093E0008091E000F1
:1050300081FDFCCF0895AF92BF92CF92DF92FF9295
:105040000F931F93CF93DF936C01EB018A010E94B2
:105050007A29F82E811123C00115110539F0F801C4
:1050600080819181C81BD90BC80ED91EB12CA12CEF
:105070002097A9F08091E80085FD22C08091E8008A
:105080008E778093E80001151105A1F0F801808169
:105090009181A80EB91EB182A08285E0F82E8F2DD5
:1050A000DF91CF911F910F91FF90DF90CF90BF9034
:1050B000AF9008950E947A298823D1F2F82EEFCF7D
:1050C000F60181916F018093F1002197FFEFAF1AF4
:1050D000BF0ACECFFC018091260690912706861745
:1050E0009707A0F06115710529F49091E8009E776B
:1050F0009093E80090E06115710551F4911108C09A
:105100008091E80082FF34C080E00895BC01F2CFB6
:1051100080911F068823C1F18530C1F18091E8009C
:1051200083FD30C08091E80082FDEACF8091E800E5
:1051300080FFE1CF8091F3002091F200382F6115BC
:10514000710519F02830310558F091E0283031050B
:1051500009F090E02091E8002E772093E800CBCF73
:1051600081918093F100615071092F5F3F4FE7CF2C
:1051700080911F06882341F0853041F08091E8003E
:1051800083FFBECF81E0089582E0089583E0089513
:10519000FC01809126069091270686179707A0F0BC
:1051A0006115710529F48091E8008E778093E800FD
:1051B00090E06115710551F4911108C08091E800EB
:1051C00082FF35C080E00895BC01F2CF80911F06B8
:1051D0008823C9F18530C9F18091E80083FD31C091
:1051E0008091E80082FDEACF8091E80080FFE1CF66
:1051F0008091F3002091F200382F6115710519F0AC
:105200002830310558F091E02830310509F090E060
:105210008091E8008E778093E800CBCF84918093D3
:10522000F1003196615071092F5F3F4FE6CF8091B9
:105230001F06882341F0853041F08091E80083FF0C
:10524000BDCF81E0089582E0089583E00895982F0E
:10525000973028F08F708093E90081E00895909353
:10526000E900242F762F50E0981731F07091EC0070
:105270002091ED005091F00021FD02C09F5FE8CF2A
:105280003091EB003E7F3093EB003091ED003D7F9D
:105290003093ED003091EB0031603093EB00709370
:1052A000EC002093ED005093F0002091EE0027FDDC
:1052B000E5CF80E008958091200687FF13C080919C
:1052C000E80082FF06C08091E8008B778093E800B9
:1052D00004C080911F068111F2CF089580911F06AE
:1052E0008823D9F38091E80080FFF8CF8091E8000F
:1052F0008E77ECCF2091E4003091E50095E6A9018E
:105300002091EC00822F817020FF06C08091E80080
:1053100080FF06C080E008952091E80022FD1AC0B9
:1053200080911F06882389F0853089F08091EB00F9
:1053300085FD0FC02091E4003091E500421753072E
:10534000F9F29150E1F684E0089582E0089583E057
:10535000089581E008950E94192A0E94212AE0EE12
:10536000F0E0808181608083E8EDF0E080818F77DC
:10537000808319BCA7EDB0E08C918E7F8C938081E7
:105380008F7E808310921E0608950F931F93CF93F4
:10539000DF930E94192A0E94212AC8EDD0E088815B
:1053A0008F77888388818068888388818F7D8883D0
:1053B00019BC10921F0610921B0610921D06109227
:1053C0001C0600EE10E0F80180818B7F80838881CD
:1053D0008160888342E060E080E00E942729E1EE5E
:1053E000F0E080818E7F8083E2EEF0E0808181605A
:1053F0008083808188608083F80180818E7F8083B4
:10540000888180618883DF91CF911F910F910895EA
:10541000E8EDF0E080818F7E8083E7EDF0E0808131
:105420008160808384E082BF81E080931E060C94BB
:10543000C529E8EDF0E080818E7F80831092E20044
:1054400008951092DA001092E10008951F920F92D1
:105450000FB60F9211242F933F934F935F936F9347
:105460007F938F939F93AF93BF93EF93FF9380911D
:10547000E10082FF0BC08091E20082FF07C08091B3
:10548000E1008B7F8093E1000E94902C8091DA00F4
:1054900080FF19C08091D80080FF15C08091DA008C
:1054A0008E7F8093DA008091D90080FF96C080E1E2
:1054B00089BD82E189BD09B400FEFDCF81E0809302
:1054C0001F060E9481268091E10080FF19C0809113
:1054D000E20080FF15C08091E2008E7F8093E200A1
:1054E0008091E20080618093E2008091D800806228
:1054F0008093D80019BC85E080931F060E949326F4
:105500008091E10084FF2BC08091E20084FF27C0DE
:1055100080E189BD82E189BD89B5982F917080FFB6
:10552000FBCF8091D8008F7D8093D8008091E100DF
:105530008F7E8093E1008091E2008F7E8093E20075
:105540008091E20081608093E20080911B068823B5
:1055500009F449C084E080931F060E94942680913C
:10556000E10083FF29C08091E20083FF25C0809184
:10557000E100877F8093E10082E080931F06109214
:105580001B068091E1008E7F8093E1008091E20014
:105590008E7F8093E2008091E20080618093E20040
:1055A00042E060E080E00E9427298091F00088605E
:1055B0008093F0000E949226FF91EF91BF91AF91EE
:1055C0009F918F917F916F915F914F913F912F911B
:1055D0000F900FBE0F901F90189519BC10921F06C8
:1055E0000E948F2670CF8091E30087FD93E0909317
:1055F0001F06B3CF1F920F920FB60F9211242F9355
:105600003F934F935F936F937F938F939F93AF934A
:10561000BF93CF93DF93EF93FF93D091E900DF70B7
:105620008091EC00C82FC17080FDC0E81092E900A5
:105630008091F000877F8093F00078940E943E2B49
:105640001092E9008091F00088608093F000CD2BEB
:10565000CF70C093E900FF91EF91DF91CF91BF919F
:10566000AF919F918F917F916F915F914F913F91FA
:105670002F910F900FBE0F901F9018951F93CF93EF
:10568000DF93CDB7DEB7AA970FB6F894DEBF0FBE93
:10569000CDBF80E296E02091F100FC012193CF0183
:1056A000F6E088329F07B9F70E94A0268091E800B3
:1056B00083FF1EC180912006909121069A3008F048
:1056C00017C1E92FF0E0E354F24D0C94F32C80382D
:1056D00099F0823809F00CC1809124068F708730D0
:1056E00008F006C18093E9008091EB0085FB8827D4
:1056F00080F91092E90006C080911C0690911D0669
:10570000911182609091E800977F9093E8008093D8
:10571000F1001092F1008091E8008E77E5C08823B7
:1057200009F4D3C0823009F0E3C0809122068111D0
:10573000D6C0809124068F702FEF280F263008F0F6
:10574000D7C08093E9002091EB0020FFC8C09330C0
:1057500031F48091EB0080628093EB00C0C09091A7
:10576000EB0090619093EB0021E030E001C0220F4C
:105770008A95EAF72093EA001092EA008091EB0004
:105780008860EACF8111B4C0109122061F77809102
:10579000E3008078812B8093E3008091E800877F8D
:1057A0008093E8000E945B298091E80080FFFCCF95
:1057B0008091E30080688093E30082E0111183E030
:1057C00080931F0695C08058823008F091C0809168
:1057D0002206909123068C3D23E09207A1F583E0F9
:1057E0008A838AE289834FB7F894DE01139620E01A
:1057F0003EE051E2E32FF0E050935700E49120FFA8
:1058000003C0E295EF703F5FEF708E2F90E0EA30BB
:10581000C0F0C7968D939D932F5F243159F74FBFEA
:105820008091E800877F8093E8006AE270E0CE0113
:1058300001960E946A288091E8008B778093E800A7
:1058400057C0C096E7CF6091240670912506AE013F
:105850004F5F5F4F0E949627BC01892B09F448C017
:105860009091E800977F9093E80089819A810E9447
:10587000C828E1CF8038E1F58091E800877F8093E8
:10588000E80080911B068093F10045CF811130C064
:1058900090912206923060F58091E800877F809396
:1058A000E80090931B060E945B2980911B068823C9
:1058B00011F084E005C08091E30087FDFACF81E01C
:1058C00080931F060E94962613C080912206813085
:1058D00079F481E0933009F080E080931D06109206
:1058E000E9008091E800877F8093E8000E945B29AF
:1058F0008091E80083FF0AC08091E800877F809351
:10590000E8008091EB0080628093EB00AA960FB6CE
:10591000F894DEBF0FBECDBFDF91CF911F910895E8
:105920000895CF9380911F068823A1F0C091E900CC
:10593000CF709091EC00892F817090FD80E8C82B8A
:105940001092E9008091E80083FD0E943E2BCF7009
:10595000C093E900CF910895AA1BBB1B51E107C07A
:10596000AA1FBB1FA617B70710F0A61BB70B881FEF
:10597000991F5A95A9F780959095BC01CD0108957E
:1059800097FB072E16F4009407D077FD09D00E94EC
:10599000AC2C07FC05D03EF4909581959F4F08955F
:1059A000709561957F4F0895052E97FB1EF4009426
:1059B0000E94EB2C57FD07D00E94F92C07FC03D066
:1059C0004EF40C94EB2C50954095309521953F4F1B
:1059D0004F4F5F4F089590958095709561957F4FDB
:1059E0008F4F9F4F0895EE0FFF1F0590F491E02D0C
:1059F0000994A1E21A2EAA1BBB1BFD010DC0AA1F10
:105A0000BB1FEE1FFF1FA217B307E407F50720F027
:105A1000A21BB30BE40BF50B661F771F881F991FA2
:105A20001A9469F760957095809590959B01AC01EB
:105A3000BD01CF010895FB01DC0102C001900D9270
:105A400041505040D8F70895DC01CB01FC01F99991
:105A5000FECF06C0F2BDE1BDF89A319600B40D92BA
:105A600041505040B8F70895F999FECF92BD81BDDD
:105A7000F89A992780B50895A8E1B0E042E050E097
:105A80000C94262DDC01A40FB51F4150504048F066
:105A9000CB01840F951F2E910E94532D41505040F1
:105AA000D0F70895262FF999FECF92BD81BDF89ABF
:105AB000019700B4021639F01FBA20BD0FB6F89452
:105AC000FA9AF99A0FBE08950396272F0E94532D34
:105AD0000E94522D252F0E94532D242F0C94532DBC
